:0400020008EF00F013
:0A000A000C82D7ED08F0A1EF08F01A
:1010000000426F6F746C6F61646572202D205632E0
:101010002E31202D204154454E4541204944524F08
:0D1020004D2D4C54202E2E2E200A0D0000C8
:10102E00959A8C9A959C8C8C959E8C9E929889986C
:10103E00FC0ED316970ED56ED08EF28EF28CF184F6
:10104E00F28AF294F00ED76EBD0ED66E02EC09F057
:10105E00010EE9EC08F0010E026E100E036EBCECF0
:10106E0008F00B50D8B43EEF08F040EF08F038EF20
:10107E0008F0000E0B6E8CBA47EF08F04AEF08F03E
:10108E00010E4BEF08F0000EFF0A046E043A044600
:10109E008C500418DF0B04188C6E8CBC59EF08F0C2
:1010AE005CEF08F0010E5DEF08F0000EFF0A046E13
:1010BE00043A044604468C500418BF0B04188C6E78
:1010CE008CBE6CEF08F06FEF08F0010E70EF08F0B9
:1010DE00000EFF0A046E043204328C5004187F0B8B
:1010EE0004188C6E030E0A647FEF08F081EF08F08F
:1010FE0038EF08F08988020E056E0A0E046EF60EA1
:10110E00E82EFED7042EFCD7052EFAD700D08998EC
:10111E00020E056E0A0E046EF60EE82EFED7042E93
:10112E00FCD7052EFAD700D0000E0A6E38EF08F065
:10113E0008EF00F0180EF66E120EF76E000EF86E37
:10114E0000EE06F010EE04F00900F5CFEEFFE550CC
:10115E00E150FAE10B6A0A6A0C900C92000EF86EDE
:10116E00100EF76E000117EF08F0C8EF08F002C07E
:10117E00F6FF03C0F7FF0800F550F7EC08F0024A3F
:10118E00032A02C0F6FF03C0F7FF0800F55000095E
:10119E00D8A4D4EF08F0D6EF08F0BEEF08F0120096
:1011AE000600F2A4DDEF08F0DFEF08F0E7EF08F03D
:1011BE00010E0B6E0A2AF00ED76EBD0ED66EF2948D
:1011CE000C921100016E0150D8B4F0EF08F0F2EF5E
:1011DE0008F0F5EF08F0AC8AF6EF08F0AC9A1200C2
:1011EE00016EACA2FDEF08F0FFEF08F0F8EF08F08B
:1011FE0001C0ADFF1200948E948C340EAF6E060EAD
:0E120E00AC6E800EAB6EF28C1200004B000036
:020000040030CA
:0E000000FF02120EFF8181FF0FC00FE00F40C4
:00000001FF
