:020000040000FA
:0400040009EF00F010
:0A000C000B82D4ED08F09EEF08F01F
:1010000000426F6F746C6F61646572202D205632E0
:101010002E31202D204154454E4541204944524F08
:0D1020004D2D4C54202E2E2E200A0D0000C8
:10102E00949A8B9A949C8B8C949E8B9E9298899872
:10103E00700ED36E970ED56ED08EF28EF28CF1842A
:10104E00F28AF294F00ED76EBD0ED66ED3A432EFA6
:10105E0008F034EF08F02DEF08F0F4EC08F0010E74
:10106E00E6EC08F0010E066E100E076EB9EC08F0F5
:10107E000A50D8B445EF08F047EF08F03FEF08F0FC
:10108E00000E0A6E8BBA4EEF08F051EF08F0010E0B
:10109E0052EF08F0000EFF0A086E083A08468B5011
:1010AE000818DF0B08188B6E8BBC60EF08F063EF2F
:1010BE0008F0010E64EF08F0000EFF0A086E083A01
:1010CE00084608468B500818BF0B08188B6E8BBE4F
:1010DE0073EF08F076EF08F0010E77EF08F0000ED0
:1010EE00FF0A086E083208328B5008187F0B08185A
:1010FE008B6E030E096486EF08F088EF08F03FEF61
:10110E0008F08988820E086EDE0EE82EFED7082EB5
:10111E00FCD78998820E086EDE0EE82EFED7082EBA
:10112E00FCD7000E096E3FEF08F009EF00F0160E27
:10113E00F66E120EF76E000EF86E00EE01F010EE67
:10114E0004F00900F5CFEEFFE550E150FAE10A6A2E
:10115E00096A0B900B92000EF86E100EF76E0001DE
:10116E0017EF08F0C5EF08F006C0F6FF07C0F7FF4F
:10117E000800F55000EC09F0064A072A06C0F6FFF3
:10118E0007C0F7FF0800F5500009D8A4D1EF08F00A
:10119E00D3EF08F0BBEF08F012000600F2A4DAEF6E
:1011AE0008F0DCEF08F0E4EF08F0010E0A6E092AF1
:1011BE00F00ED76EBD0ED66EF2940B921100056E28
:1011CE000550D8B4EDEF08F0EFEF08F0F2EF08F0AD
:1011DE00AC8AF3EF08F0AC9A1200948E948C340E15
:1011EE00AF6E330EAF6E060EAC6E800EAB6EF28C23
:1011FE001200056EACA206EF09F008EF09F001EF40
:0C120E0009F005C0ADFF120080250000B3
:020000040030CA
:0E000000FF081F1FFF8385FF0FC00FE00F409A
:00000001FF
